:0C096B000A083F065B4F666D7D077F6F3A
:08092400F8E6F5807F287E0053
:10092C00E4FDFCC3ED9FEC9E5015E4FBFA0BBB0001
:0F093C00010AEB647D4A70F50DBD00010C80E4EB
:01094B002289
:0408E1008E128F13D1
:1008E500E4F514F51575A001AE12AF137C007D0A71
:1008F50012088C74082F12092475A002AE12AF13CA
:100905007C007D0A12088C74082D1209240515E552
:0E0915001570020514C3940FE514940040C73A
:0109230022B1
:10094C00900001AE83E5827803C333CE33CED8F961
:0F095C00FF1208E1A3E582640B458370E680E19A
:03000000020800F3
:0C080000787FE4F6D8FD758115020847EA
:10088C00BC000BBE0029EF8DF084FFADF022E4CC50
:10089C00F875F008EF2FFFEE33FEEC33FCEE9DEC19
:1008AC00984005FCEE9DFE0FD5F0E9E4CEFD22ED5F
:1008BC00F8F5F0EE8420D21CFEADF075F008EF2FA9
:1008CC00FFED33FD4007985006D5F0F222C398FD9A
:0508DC000FD5F0EA2237
:10080C0002094CE493A3F8E493A34003F68001F2AD
:10081C0008DFF48029E493A3F85407240CC8C333ED
:10082C00C4540F4420C8834004F456800146F6DFBC
:10083C00E4800B010204081020408090096BE47ED8
:10084C00019360BCA3FF543F30E509541FFEE493B1
:10085C00A360010ECF54C025E060A840B8E493A378
:10086C00FAE493A3F8E493A3C8C582C8CAC583CAA3
:10087C00F0A3C8C582C8CAC583CADFE9DEE780BE5B
:01097700007F
:00000001FF
