:10087000E4FDFCC3ED9FEC9E5015E4FBFA0BBB00BE
:0F088000010AEB647D4A70F50DBD00010C80E4A8
:01088F002246
:100800007560A57561FD7562677563427564DF7516
:10081000659A75668475671B7568C7756931E4F9F3
:10082000E9C3940A748094805029E4FFEFC399507F
:100830001F746029F8E6FE74602FF8E6FDD39E4031
:100840000C746029F8A60574602FF8A6060F80DCEA
:100850000980CDE4F9E9C3940A7480948050F4745B
:100860006029F8E6F5807FE87E031208700980E5CC
:0300000002089063
:0C089000787FE4F6D8FD7581690208004D
:00000001FF
