:10085800E4FDFCC3ED9FEC9E5015E4FBFA0BBB00D6
:0F086800010AEB647D4A70F50DBD00010C80E4C0
:01087700225E
:100800007550D67551F27552E47553A87554CE756E
:1008100055B97556FA7557AE7558BA7559CCAF506B
:100820008F08A9077F01EFC3940A74809480501742
:1008300074502FF8E6FEC3995002A906EED395082E
:1008400040028E080F80DF89807FE87E03120858FF
:0808500085088012085880EFB2
:030000000208787B
:0C087800787FE4F6D8FD75815902080075
:00000001FF
