:10088900E4FDFCC3ED9FEC9E5015E4FBFA0BBB00A5
:0F089900010AEB647D4A70F50DBD00010C80E48F
:0108A800222D
:10080000750B9A750A7F750989750800750F48750B
:100810000EBC750D34750C00E50B250FF513E50ABC
:10082000350EF512E509350DF511E508350CF51015
:10083000E4F514F515E513FF74402515F8A607AF88
:1008400013AE12AD11AC1078081208A98F138E12D6
:100850008D118C100515E5157002051464044514FE
:1008600070D3E4F514F51574402515F8E6F5807F8E
:10087000E87E031208890515E51570020514C39476
:0908800004E514940040E080D965
:030000000208BC37
:0C08BC00787FE4F6D8FD75814302080047
:1008A900E8600FECC313FCED13FDEE13FEEF13FF2D
:0308B900D8F12251
:00000001FF
