:09090D0007087966068679660682
:0608C7002512F8E6F580A1
:1008CD00E4FDFCC3ED9FEC9E5015E4FBFA0BBB0061
:0F08DD00010AEB647D4A70F50DBD00010C80E44B
:0108EC0022E9
:04088C008E118F1228
:1008900090000075A00174042512F8E6F5807F0A27
:1008A0007E001208CD75A00274051208C775A00459
:1008B00074061208C775A00874071208C7A3E5825A
:0608C0006450458370CD79
:0108C600220F
:1008ED00750F00751004AF10AE0F12088C0510E5D2
:1008FD00107002050FC39408E50F940040E880E0E6
:03000000020800F3
:0C080000787FE4F6D8FD758112020847ED
:10080C000208EDE493A3F8E493A34003F68001F20D
:10081C0008DFF48029E493A3F85407240CC8C333ED
:10082C00C4540F4420C8834004F456800146F6DFBC
:10083C00E4800B010204081020408090090DE47E36
:10084C00019360BCA3FF543F30E509541FFEE493B1
:10085C00A360010ECF54C025E060A840B8E493A378
:10086C00FAE493A3F8E493A3C8C582C8CAC583CAA3
:10087C00F0A3C8C582C8CAC583CADFE9DEE780BE5B
:0109160000E0
:00000001FF
