:1008D000E4FDFCC3ED9FEC9E5015E4FBFA0BBB005E
:0F08E000010AEB647D4A70F50DBD00010C80E448
:0108EF0022E6
:100800007B047A007508007509017901E9FD7C0017
:10081000D39BEC9A500EAE08AF091208698E088F70
:10082000090980E8AE08AF097C007D0A12087BAB9D
:1008300007AE08AF097C007D0A12087B8D0AEB75B4
:10084000F00A8485F00BEB75F00A84F98509807F46
:10085000E87E031208D0850A801208D0850B80122A
:0908600008D089801208D080E361
:030000000208F003
:0C08F000787FE4F6D8FD75810B0208004B
:10086900EF8DF0A4A8F0CF8CF0A428CE8DF0A42EA3
:02087900FE225D
:10087B00BC000BBE0029EF8DF084FFADF022E4CC61
:10088B00F875F008EF2FFFEE33FEEC33FCEE9DEC2A
:10089B00984005FCEE9DFE0FD5F0E9E4CEFD22ED70
:1008AB00F8F5F0EE8420D21CFEADF075F008EF2FBA
:1008BB00FFED33FD4007985006D5F0F222C398FDAB
:0508CB000FD5F0EA2248
:00000001FF
