:10087800E4FDFCC3ED9FEC9E5015E4FBFA0BBB00B6
:0F088800010AEB647D4A70F50DBD00010C80E4A0
:01089700223E
:100800008560087560A57561FD75626775634275E1
:1008100064DF75659A75668475671B7568C7756949
:1008200031E4F9E9C3940A74809480502EAF01EF4B
:10083000C3940A74809480501F746029F8E6FE7493
:10084000602FF8E6FDD39E400C746029F8A605746D
:10085000602FF8A6060F80D70980C8E4F9E9C39491
:100860000A7480948050F4746029F8E6F5807FE87B
:080870007E031208780980E5FF
:030000000208985B
:0C089800787FE4F6D8FD75816902080045
:00000001FF
