:0C08EF000A083F065B4F666D7D077F6FB7
:1008C100E4FDFCC3ED9FEC9E5015E4FBFA0BBB006D
:0F08D100010AEB647D4A70F50DBD00010C80E457
:0108E00022F5
:0E08E10074082FF8E6F5807FE87E030208C158
:10088C0075A001900000AF82AE831208E1A3E5824F
:10089C00640A458370F0900008D3E5829400E583E8
:1008AC00940040DFAF82AE831208E1E582158270BE
:0508BC00E8158380E453
:03000000020800F3
:0C080000787FE4F6D8FD758111020847EE
:10080C0002088CE493A3F8E493A34003F68001F26E
:10081C0008DFF48029E493A3F85407240CC8C333ED
:10082C00C4540F4420C8834004F456800146F6DFBC
:10083C00E4800B01020408102040809008EFE47E55
:10084C00019360BCA3FF543F30E509541FFEE493B1
:10085C00A360010ECF54C025E060A840B8E493A378
:10086C00FAE493A3F8E493A3C8C582C8CAC583CAA3
:10087C00F0A3C8C582C8CAC583CADFE9DEE780BE5B
:0108FB0000FC
:00000001FF
