:1000000075A00090007D78507F09EFFE79007A019D
:10001000E9F6081EEAF6081EE92AF6088AF0A9F0B1
:10002000FADEF57850EFFEE67C0075F00A84FA946B
:100030000A400CEAABF075F00A84FCE5F08BF0EABC
:10004000C425F08CF0F608DEDE7850EFFC7EFFE68B
:10005000F5F0540F75A002117BF5801172E5F05494
:10006000F0C475A001117BF5801172DEE208DCDDC1
:1000700001497B027AFADAFEDBFA2293223F065B21
:070080004F666D7D077F6FE5
:00000001FF
