:100AB800000000010000000000000000000000002D
:020AC80000002C
:0C0ACA000A203F065B4F666D7D077F6FC2
:100A9800E4FDFCC3ED9FEC9E5015E4FBFA0BBB0094
:0F0AA800010AEB647D4A70F50DBD00010C80E47E
:010AB700221C
:040A4D00AB07AA0643
:100A51007C007D0A1208F68E1C8F1DAE02AF037C4E
:100A6100007D0A1208F68C1E8D1F90000075A001F2
:100A71007420251DF8E6F5807F287E00120A9875FE
:100A8100A0027420251FF8E6F580120A98A3E582DA
:060A9100640A458370D7E2
:010A9700223C
:1009D700780A7C007D007BFF7A0A79B87E007F1257
:1009E7001208D0750800750902AF09EF25E0240643
:1009F700F8E6FC08E6FDEF25E02408F8E6FE08E641
:100A07002DFFEE3CFEE50925E0240AF8A60608A618
:100A1700070509E509700205086409450870CAE475
:100A2700F508F509E50925E0240AF8E6FE08E6FFDA
:100A3700120A4D0509E50970020508C39409E5087E
:060A4700940040E080D99C
:0300000002094BA7
:0C094B00787FE4F6D8FD7581290209923E
:10080000E709F608DFFA8046E709F208DFFA803EDA
:1008100088828C83E709F0A3DFFA8032E309F608C7
:10082000DFFA8078E309F208DFFA807088828C832F
:10083000E309F0A3DFFA806489828A83E0A3F608E3
:10084000DFFA805889828A83E0A3F208DFFA804CBD
:1008500080D280FA80C680D4806980F28033801094
:1008600080A680EA809A80A880DA80E280CA8033FD
:1008700089828A83ECFAE493A3C8C582C8CCC58375
:10088000CCF0A3C8C582C8CCC583CCDFE9DEE78045
:100890000D89828A83E493A3F608DFF9ECFAA9F0C4
:1008A000EDFB2289828A83ECFAE0A3C8C582C8CC1A
:1008B000C583CCF0A3C8C582C8CCC583CCDFEADE33
:1008C000E880DB89828A83E493A3F208DFF980CC95
:1008D00088F0EF60010E4E60C388F0ED2402B4048E
:1008E0000050B9F582EB2402B4040050AF23234535
:0608F00082239008507302
:1008F600BC000BBE0029EF8DF084FFADF022E4CCE6
:10090600F875F008EF2FFFEE33FEEC33FCEE9DECAE
:10091600984005FCEE9DFE0FD5F0E9E4CEFD22EDF4
:10092600F8F5F0EE8420D21CFEADF075F008EF2F3E
:10093600FFED33FD4007985006D5F0F222C398FD2F
:050946000FD5F0EA22CC
:100957000209D7E493A3F8E493A34003F68001F2D6
:1009670008DFF48029E493A3F85407240CC8C333A1
:10097700C4540F4420C8834004F456800146F6DF70
:10098700E4800B0102040810204080900ACAE47E2C
:10099700019360BCA3FF543F30E509541FFEE49365
:1009A700A360010ECF54C025E060A840B8E493A32C
:1009B700FAE493A3F8E493A3C8C582C8CAC583CA57
:1009C700F0A3C8C582C8CAC583CADFE9DEE780BE0F
:010AD600001F
:00000001FF
