:10086600E4FDFCC3ED9FEC9E5015E4FBFA0BBB00C8
:0F087600010AEB647D4A70F50DBD00010C80E4B2
:010885002250
:100886007E02EEC39F500BEF8EF084E5F060030E00
:0E08960080F0EEB507057E007F0122E4FEFF34
:0108A4002231
:10080000E4F51CF9E9C39421748094805009744084
:1008100029F8A6010980EDAF1C051C74082FF87695
:10082000027903E9C3942174809480502074402994
:10083000F8E6FF120886EF4E6010744029F8E6FFD4
:10084000AE1C051C74082EF8A6070980D6E4F9E949
:10085000C3951C50F8740829F8E6F5807FE87E03FC
:060860001208660980E9A0
:030000000208A54E
:0C08A500787FE4F6D8FD7581540208004D
:00000001FF
