:0C09A0000A083F065B4F666D7D077F6F05
:10098000E4FDFCC3ED9FEC9E5015E4FBFA0BBB00AD
:0F099000010AEB647D4A70F50DBD00010C80E497
:01099F002235
:04088C008F828E8346
:100890007C007D0A1208EC8E168F177C007D0AAF53
:1008A00082AE831208EC8C188D19E4F514F515E46A
:1008B000F583F582AF82EF04F5A0AF82EF25E02447
:1008C00016F808E62408F8E6F5807F287E0012096D
:1008D00080A3E5826402458370DA0515E515700290
:0B08E0000514C3940AE514940040C402
:0108EB0022EA
:10094100E4F512F513AF13AE1212088C0513E5137B
:1009510070020512C39414E512940040E875120068
:10096100751314D3E5139400E512940040D2AF132C
:0F097100AE1212088CE513151370E8151280E40E
:03000000020800F3
:0C080000787FE4F6D8FD758119020847E6
:1008EC00BC000BBE0029EF8DF084FFADF022E4CCF0
:1008FC00F875F008EF2FFFEE33FEEC33FCEE9DECB9
:10090C00984005FCEE9DFE0FD5F0E9E4CEFD22EDFE
:10091C00F8F5F0EE8420D21CFEADF075F008EF2F48
:10092C00FFED33FD4007985006D5F0F222C398FD39
:05093C000FD5F0EA22D6
:10080C00020941E493A3F8E493A34003F68001F2B8
:10081C0008DFF48029E493A3F85407240CC8C333ED
:10082C00C4540F4420C8834004F456800146F6DFBC
:10083C00E4800B01020408102040809009A0E47EA3
:10084C00019360BCA3FF543F30E509541FFEE493B1
:10085C00A360010ECF54C025E060A840B8E493A378
:10086C00FAE493A3F8E493A3C8C582C8CAC583CAA3
:10087C00F0A3C8C582C8CAC583CADFE9DEE780BE5B
:0109AC00004A
:00000001FF
