:1000000075403F75410675425B75434F7544667593
:10001000456D75467D75470775487F75496F754A0B
:100020003F85405085415185425279507E0278404B
:100030007D0A7FFFE775A001F5801183E675A002B8
:10004000F5801183DFEE08DDE909DEE27FFFE77569
:10005000A001F5801183E675A002F5801183DFEE23
:10006000197E0278497D0A7FFFE775A001F58011AE
:1000700083E675A002F5801183DFEE18DDE919DE55
:0C008000E2012A7B027AFADAFEDBFA22A7
:00000001FF
