:0608D40004087966060627
:1008B400E4FDFCC3ED9FEC9E5015E4FBFA0BBB007A
:0F08C400010AEB647D4A70F50DBD00010C80E464
:0108D3002202
:10088C0075A0018508807F0A7E001208B475A0024D
:10089C008509801208B475A004850A801208B47505
:0808AC00A008850B800208B4CE
:0508DB0012088C80FBF7
:03000000020800F3
:0C080000787FE4F6D8FD75810B020847F4
:10080C000208DBE493A3F8E493A34003F68001F21F
:10081C0008DFF48029E493A3F85407240CC8C333ED
:10082C00C4540F4420C8834004F456800146F6DFBC
:10083C00E4800B01020408102040809008D4E47E70
:10084C00019360BCA3FF543F30E509541FFEE493B1
:10085C00A360010ECF54C025E060A840B8E493A378
:10086C00FAE493A3F8E493A3C8C582C8CAC583CAA3
:10087C00F0A3C8C582C8CAC583CADFE9DEE780BE5B
:0108DA00001D
:00000001FF
